:020000040800F2
:10000000200A0020350200080F3C0008BD36000819
:100010000D3C00082B1C00082543000800000000D0
:10002000000000000000000000000000FB3E00088F
:10003000E71D000800000000F93E0008FD3E000832
:100040004F0200084F0200084F0200084F0200084C
:100050004F0200084F0200084F0200084F0200083C
:100060004F0200084F0200084F0200084F0200082C
:100070004F0200084F0200084F0200084F0200081C
:100080004F0200084F0200084F0200084F0200080C
:100090004F0200084F0200084F0200084F020008FC
:1000A0004F0200084F0200084F0200084F020008EC
:1000B0004F0200084F0200084F0200084F020008DC
:1000C0004F0200084F0200084F0200084F020008CC
:1000D0004F020008D1420008DD4200084F0200082C
:1000E0004F0200084F0200084F02000800F002F81B
:1000F00000F090F80AA090E8000C82448344AAF132
:100100000107DA4501D100F085F8AFF2090EBAE82F
:100110000F0013F0010F18BFFB1A43F0010318473B
:100120005C5800007C580000103A24BF78C878C1A1
:10013000FAD8520724BF30C830C144BF04680C60ED
:10014000704700000023002400250026103A28BF35
:1001500078C1FBD8520728BF30C148BF0B60704739
:100160006E2900F0E982702900F05986662904F0B2
:100170003A87652904F03787672904F034876129B5
:1001800004F0338703681B0A28BF41F08001692906
:1001900000F00C81642900F00981752900F00681C6
:1001A0006F2900F0E685782900F02586E92900F01E
:1001B0008185E42900F07E85F52900F07B85EF2913
:1001C00000F0E385F82900F024860368DB0928BFE6
:1001D00041F08001632900F00285732900F0078552
:1001E000E32901F03980F32901F03E8000207047B7
:1001F0001FB500F01FFE04000020002104F054FB96
:10020000401C60600020002104F038FBE0601FBD4E
:1002100010B510BD01F0C2F81146FFF7E9FF04F078
:10022000C7F801F0E9F803B4FFF7F2FF03BC01F0EF
:100230002DF900000948804709480047FEE7FEE71E
:10024000FEE7FEE7FEE7FEE7FEE7FEE7FEE7FEE786
:1002500004480549054A064B704700005F3F000807
:10026000ED00000820040020200A002020060020C5
:10027000200600207CB51D4616460C00009001D0DB
:100280002044401E074B7B442A4669460190304675
:1002900000F07BFC05461CB10020694600F088FC9C
:1002A00028467CBD310900000FB41CB5084B06AAD6
:1002B0007B4469460090059800F067FC04460020E6
:1002C000694600F075FC20461CBC5DF814FB00007C
:1002D000FD0800000FB47CB50C0009AA009001D005
:1002E0002044401E084B7B4469460190089800F06A
:1002F0004CFC05461CB10020694600F059FC28461C
:100300007CBC5DF814FB0000D108000070B5044609
:1003100085690068C10601D5302600E02026C007A7
:1003200007D070BDD4E9012130469047206A401CB7
:1003300020626D1EF6D570BD70B5044685690078E3
:10034000C00707D170BDD4E9012120209047206A61
:10035000401C20626D1EF6D570BD70B50C4605467A
:10036000012A05D02878800600D5EA69002302E03A
:10037000012305E05B1C934202D2E05C0028F9D126
:10038000A869E618C01AA861286A18442862284695
:10039000FFF7BCFF04E0D5E9012114F8010B9047F9
:1003A000B442F8D32846FFF7C7FF70BD2DE9F041EE
:1003B0000646002410687529314616A510D000F0B5
:1003C00050F9002802DA404213A507E031688A0795
:1003D00001D512A502E0490704D511A5012401E0C9
:1003E00000F048F900210A2206F1240709E0B0FBD9
:1003F000F2FCB0FBF2F302FB1C00303078541846DC
:10040000491C0028F3D123462A463046BDE8F04176
:1004100000F039B9000000002D0000002B000000A2
:10042000200000002DE9F05F894604464FF0000AE5
:10043000DFF874B1FB44C0F820A02046E16888478B
:10044000002874D0252806D0D4E901219047206ADD
:10045000401C2062F1E700265F462046E16888479D
:100460002028054607DB312D05D2781910F8200C1D
:1004700008B10643F1E7B00701D526F00406C4F839
:100480001CA00027C4F818A02A2D09D0284603F084
:1004900087FF38B304EB8708303DC8F8185019E0DF
:1004A00059F8041B204604EB87029161E1688847F4
:1004B000012F054618D1E069002820DA26F0200631
:1004C0001DE0D8F8180000EB800005EB4000303844
:1004D000C8F818002046E1688847054603F060FF29
:1004E0000028EED1012F0AD02E2D08D12046E16838
:1004F00088477F1C0546022F46F02006C4DBA06912
:10050000002803DA404246F00106A061F00701D05E
:1005100026F010066C2D0BD0682D09D04C2D39D04B
:100520006A2D35D0742D35D07A2D33D016E038E0D1
:10053000E1682F4620468847B842054609D16C2F0E
:1005400026D04FF48060E168064320468847054680
:1005500004E06C2F1AD04FF4807006430DB3A5F160
:100560004100192802D8203546F400664A4629463B
:10057000204626604E46FFF7F3FD80B101280BD0E0
:10058000F61D26F0070000F1080956E74020E4E7D1
:100590008020D8E70020D6E706F104094DE7284679
:1005A00052E7206ABDE8F09FE053000030B50546F1
:1005B0000B462A4613F8014B12F8010B08B1A04272
:1005C000F8D01CB1002802D06D1CF1E7284630BDE0
:1005D00010B5431C02E010F8011B71B18107FAD17C
:1005E0004FF0013202C88C1A8C4314EAC211F9D0C0
:1005F000C01A0A0603D0C01E10BDC01A10BD0A04DE
:1006000001D0801E10BD0902FCD0401E10BD4FF06D
:10061000000200B5134694469646203922BFA0E852
:100620000C50A0E80C50B1F12001BFF4F7AF09075E
:1006300028BFA0E80C5048BF0CC05DF804EB89004F
:1006400028BF40F8042B08BF704748BF20F8022B92
:1006500011F0804F18BF00F8012B704770477047AA
:10066000704709684A0501D540B27047C905FCD5F5
:1006700000B2704709684A0501D5C0B27047C90584
:10068000FCD580B270472DE9F0470D469946924659
:10069000044600F124080168880604D5E06921F0C9
:1006A0001001216000E00120A84201DD471B00E0AD
:1006B0000027A1697A1902EB0900081AA0612078C5
:1006C000C00602D42046FFF721FE002608E0D4E948
:1006D00001211AF806009047206A401C761C20620F
:1006E0004E45F4DB2078C0060AD52046FFF70EFE03
:1006F00006E0D4E9012130209047206A401C2062A6
:10070000381EA7F10107F4DC07E0D4E9012118F84D
:1007100005009047206A401C2062281EA5F10105B3
:10072000F3DC2046FFF708FE2078000602D5022001
:10073000BDE8F0870120FBE711680268006A5305F5
:1007400001D508700AE0D30501D5088006E013063C
:1007500003D5C217C1E9000200E00860012070471C
:1007600070472DE9FF4F0C461E464FF0FF378BB008
:10077000D2E90001DDF860800A908A46C1F30A558B
:1007800005B93D46002108464FF00000BAF1000FC0
:1007900000F4400005DA00EB80004FF4400101EA6C
:1007A00050004FEA9059B9F1010F00DDB9460A989F
:1007B00050EA4A000ED044F61050A5F2FF354543EA
:1007C0002F14B8F1000F1ED07542291E1EDDC9F18D
:1007D00000021CE0B8F1010F4FF0000001D0302101
:1007E00003E0F24305E02154401CB042FBDB3046FD
:1007F0000022002121540B99C1F80880C1E9002092
:100800000FB0BDE8F08FBD1B6D1CDEE74A4600DA75
:10081000694206A800F02CFD06AB93E8070003AB85
:1008200083E8070050460A9900F037FE8DE807007C
:10083000A0F500501F3800900398002D0ADD42F209
:100840001F014A460844002303A90390684601F0AB
:10085000A0F809E0A0F500504A461F38002303A97C
:100860000390684601F0AAF88DE807000004000C28
:1008700003D04FF0FF30410800E01046B8F1000F00
:1008800003D00022009215461EE0751E05D400F02C
:10089000D5FA303262556D1EF9D5B34601220843B0
:1008A00002D000227F1C04E02078302801D10022F1
:1008B0007F1E002A099784D01DE0112D07DA00F071
:1008C000BDFA303262556D1C50EA0102F5D1084381
:1008D00002D00098C8B10EE00021681E05E0235C3C
:1008E000625C63542254401E491C8142F7DBAB46D4
:1008F000A81B401E0990002004F80B000B98099AD1
:10090000C0F80880C0E9002B7AE711264FF00008F4
:1009100057E72DE9F04F88460446D21D22F0070123
:1009200091B0D1E90001CDE90A0103F015FD0246BD
:100930000B98C00F01D02D2007E02068810701D55A
:100940002B2002E0202101EAC000032A099001D0F7
:10095000072A05DB03464146204600F033FC0BE145
:100960002078800601D5E06900E00620B8F1650F27
:10097000814606D0B8F1660F18D0B8F1670F70D174
:1009800031E00020B9F1110F009001DB112301E0EB
:1009900009F101030AAA01A90CA8FFF7E2FEDDE9AB
:1009A0000C70002609F10105834647E001204B4603
:1009B00000904FF000470AAA01A90CA8FFF7D1FE4A
:1009C000DDE90DB00C995D46002610B909F1010072
:1009D0000D18B9EB050003D4C0F1FF3609F101058C
:1009E000A5EB09002BE0B9F1010F01DA4FF0010985
:1009F0000020B9F1110F0090484601DD112300E0FD
:100A000003460AAA01A90CA8FFF7ABFEDDE90C70AA
:100A10004D4600268346207800070AD4AB4500DA0D
:100A20005D4601A8012D04DD411911F8011C302992
:100A300007D04F4502DA17F1040F04DA012082468D
:100A40000FE06D1EEEE7002F02DCED1B3E4403E0DD
:100A5000781CA84200DD7D1CB81B00F1010A4FF094
:100A600000472078000703D4AA4501DB4FF0FF3A86
:100A70000021B7F1004F0DF143088DF8431024D049
:100A800002202B23002F01DA7F422D230A21021E90
:100A9000A0F1010000DC5FB197FBF1FC97FBF1F2E4
:100AA00001FB1C7C17460CF1300C08F801CDEEE779
:100AB000A8F1010003702188090501D5452100E056
:100AC0006521A0F1010800F8011C09980FA9A1EB0C
:100AD0000807FF1D00B10120411901EBEA70A1696F
:100AE0003844081A401EA0612078C00602D420466F
:100AF000FFF70CFC099828B1D4E901219047206A3E
:100B0000401C20622078C00622D52046FFF7FEFB5D
:100B10001EE0002E04DBB34502DD01A8805D00E08D
:100B20003020D4E901219047206A401C2062761CC5
:100B3000AAF101005FEA000A0AD100F07BF9C0685F
:100B40000168405CD4E901219047206A401C206282
:100B5000281EA5F10105DCDC07E0D4E9012118F825
:100B6000010B9047206A401C2062381EA7F1010744
:100B7000F3DC2046FFF7E0FB032011B041E6000064
:100B800001694A1C02610878704700B58FB0CDE951
:100B900001310021059105497944CDE90310114641
:100BA0006846FFF73FFC0FB000BD0000E5FFFFFF08
:100BB0000A6802F8010B0A607047D1E900239A42E3
:100BC00002D2531C0B601070704710B5436913B10B
:100BD000AFF3008001E0FFF7C0FB012010BD1278E9
:100BE00000F124010A7000224A700122EDE7116829
:100BF0004FF0FF32E9E700002DE9FF5F15468A4616
:100C00000446DFF8AC80F8440027D8E900103E46DF
:100C1000CDE9001010E03AF816106A4602A800F07C
:100C200099FB411C07D02178890603D5E269391860
:100C300091420DD80744761C2078800602D5E069E1
:100C4000B84205DDAE42E6DB3AF816000028E2D1F4
:100C5000A069C01BA0612046FFF758FBD8E900102F
:100C6000CDE90010002017E03AF818106A4602A8F3
:100C700000F070FBB0F1FF3F81460BD000250DF175
:100C8000080B05E0D4E901211BF8050090476D1C15
:100C90004D45F7D308F10100B0428046E4DB206AFD
:100CA000384420622046FFF747FBBDE8FF9F000065
:100CB000224C00002DE9F0418046D21D22F00702AF
:100CC0000025D2E90002F52915A614D0011E72F103
:100CD000000106DA0023D0EB030063EB020211A649
:100CE00008E0D8F800108B0701D50FA602E04907ED
:100CF00001D50EA601251146002408F1240704E0C1
:100D000000F09CF830323A55641C50EA0102F7D1E9
:100D10002B46324621464046BDE8F041FFF7B3BCC2
:100D2000000000002D0000002B000000200000004B
:100D300030B4002100F1240408E002F00705D208D5
:100D4000303542EA4372DB086554491C52EA030518
:100D5000F3D10468002310A2250707D5A40600D408
:100D600021B1C46901230DA2641EC46130BCFFF728
:100D70008ABC10B5044621461068FFF77BFC02468A
:100D80002046BDE810400023D2E7D21D22F0070123
:100D9000D1E90023CCE70000000000003000000093
:100DA000F0B40D460188090502D5214C7C4402E0CF
:100DB0001F4C7C440E34002100F1240608E002F0B0
:100DC0000F071209E75D42EA03721B097754491CB9
:100DD00052EA0307F3D102780023120704D5702DDD
:100DE00006D009B1022311342246F0BCFFF74BBCF8
:100DF00001231034F8E770B504460D46214610680B
:100E0000FFF738FC024629462046BDE87040002323
:100E1000C6E7D21D22F00703D3E90023C0E7036829
:100E2000126843F0200303600823C3610023B7E77F
:100E3000844A000000487047DC03002030B5B0F160
:100E40000A024FEA900E71F100034EEA817EB0EB88
:100E50000E0061EB91014FEA101E4EEA017E10EB8D
:100E60000E0041EB11114FEA102E4EEA016E10EB0D
:100E70000E0041EB11214FEA104E4EEA014E10EBED
:100E80000E0041EB1141401841F100014FEAD00042
:100E900040EA41704FEAD10110EB80054FEA81042E
:100EA00044EA907444EB01046D1944EB0404521BB2
:100EB000A3414FF0000348BF0A3200D530BD401CAB
:100EC00041F1000130BD00002DE9F04F04460D4610
:100ED000D21D22F0070089B0D0E900974846394674
:100EE00003F03AFA0246F80F01D02D2307E02068FC
:100EF000810701D52B2302E0202101EAC0038DF8F0
:100F000020300BB1012000E00020032A824601D0EE
:100F1000072A04DB2946204600F054F93FE12078F7
:100F2000800601D40D2500E0E569C7F30A560D2DB2
:100F300049DA00214FEA175B08464FF00000002F06
:100F400000F4400007DA00EB80004FF4400100EBB2
:100F5000D07001EA60008115012901DD4FF0FF31F9
:100F600000224FEA850CBCF1180F06D31346ACF1F2
:100F700018004FF08052C24003E04FF4801323FA70
:100F80000CF30CF10C0CBCF1200F04D3ACF1200CD1
:100F900009FA0CF001E007FA0CF000294FF00048C4
:100FA00001DD18B90FE00ED140450CD319EB020951
:100FB0005F4121B9404502D19F4329EA0209BBEBB9
:100FC000175F00D0761C2088000502D57B48784446
:100FD00002E07A487844193808AA302302F80A3027
:100FE000037C0AF10101002E0AF1020A53546A46F9
:100FF00002DC4FF0300101E04FF031014FF0010809
:101000008DF8001002D0A6F2FF3603E059EA47013E
:1010100000D06B4E002D02DC2178090704D54FF07B
:1010200002082E218DF80110C44600210BE0C7F301
:1010300003433F01C35C491C6D1E02F808300529BB
:1010400008F1010801DA002DF1DC00210CE000EBD1
:101050001973491C1B786D1E082902F808304FEAE5
:10106000091908F1010801DA002DF0DC21688B066E
:1010700002D516E0A8F10108E04505DD02EB080302
:1010800013F8013C302BF5D0B8F1000F09DD02EB6D
:10109000080313F8013C2E2B03D1090701D4A8F152
:1010A0000108002D05DD3E2102F808106D1E08F133
:1010B0000108407C002E02F8080008F1010804DA5B
:1010C0002D20764202F8080002E02B2002F80800EA
:1010D0000A214FF47A70864208F101080BDB96FB77
:1010E000F0F3303302F8083096FBF0F308F1010812
:1010F00000FB136601E0642E0CDB642096FBF0F32A
:10110000303302F8083096FBF0F308F1010800FBD9
:10111000136601E00A2E06DB96FBF1F0303002F890
:10112000080008F1010896FBF1F001FB1060303077
:1011300002F80800A16908F1010808EB050202EBBA
:101140000A00081AA0612078C00602D42046FFF7E2
:10115000DDF8216A08AE01EB0A00206204E0D4E960
:10116000012116F8010B9047BAF1010AF7D2207855
:10117000C00602D52046FFF7C9F86E4609E016F80A
:10118000010B3E280FD0D4E901219047206A401C72
:101190002062B8F10108F2D22046FFF7CDF809B07D
:1011A0000320BDE8F08F206A2844206203E0D4E9E0
:1011B0000121302090476D1EEBD3F8E79D480000D9
:1011C00002FCFFFF2DE9F0411F460446032601689B
:1011D000072A01F4006004DB08B116A505E016A596
:1011E00003E008B115A500E015A521F0100020606E
:1011F000A069C01EA0610FB1401EA0612046FFF78C
:1012000085F84FB1D4E9012138469047206A401C47
:101210002062C01C206206E0206AFAE7D4E90121BE
:1012200015F8010B9047761EF8D22046FFF784F898
:10123000BDE8F0814E414E006E616E00494E4600A1
:10124000696E660010B5436913B1AFF3008001E029
:10125000FFF7D2FC012010BD128800F12401828426
:101260000022C2840122EDE711684FF0FF32E9E766
:101270002DE9F047814616468AB0354878440DC8B6
:101280008DE80D0032487844801C03AC0DC884E81A
:101290000D0041F69B300844372190FBF1F290FBA2
:1012A000F1F5A5F1800501FB12041B3C02D5644257
:1012B000012000E00020DFF898A080460027FA44D3
:1012C000AAF1BE0A0EE0E0070AD03246684607EBF4
:1012D000470101230AEB810100F070FB8DE8070054
:1012E00064107F1C002CEED1194F7F44AE3F19E0F3
:1012F000E80715D007EB04100DF1180A90E80E006E
:101300008AE80E00C068F04201D198190890324670
:10131000012306A903A800F051FB03AB83E80700F3
:101320006D10641C002DE3D14FF001033246694675
:10133000B8F1000F03A802D000F02BFB01E000F091
:101340003DFBC9E90001C9F808200AB0BDE8F087F3
:101350008046000070B516460C46054600F044F87D
:10136000036893F80101012806D0FF2C0FD8185DFF
:1013700068B101202C7070BDD3F8070132462146B8
:1013800003F2071303442846BDE8704018474FF0A6
:10139000FF3070BD00487047BC0300207546FFF762
:1013A000F9FFAE4605006946534620F00700854622
:1013B00018B020B5FEF74CFFBDE820404FF0000606
:1013C0004FF000074FF000084FF0000B21F007012D
:1013D000AC46ACE8C009ACE8C009ACE8C009ACE870
:1013E000C0098D467047000010B5FFF723FD001DB2
:1013F00010BD00BFB534000010B50446AFF3008047
:101400002046BDE81040FEF70EBF00004FF0013C43
:1014100050F8042B51F8043B9A4221D1A2EB0C0363
:10142000934313EACC1317D150F8042B51F8043B23
:101430009A4215D1A2EB0C03934313EACC130BD1C0
:1014400050F8042B51F8043B9A4209D1A2EB0C034B
:10145000934313EACC13DBD04FF00000704700BF7A
:10146000D01A01BAB1FA81F101F0180122FA01F0A3
:10147000CB40C1F12001DBB2C0B2C01A2CFA01F39B
:10148000D11A914311EAC311E6D1704701491820DE
:10149000ABBEFEE72600020070475FEA400C08BFC3
:1014A00091F0000F4FEA8C234FEAC12243EA5151D9
:1014B0004FEA1C5018BF00F5F0404FEA300018BF4B
:1014C00041F000415FEA6C5C00F02980BCF1FF3F15
:1014D00008BF40F080407047130C06BF12044FF065
:1014E000100C4FF0000C130E04BF12020CF1080C8C
:1014F000130F04BF12010CF1040C930F04BF9200F0
:101500000CF1020CD30F04BF52000CF1010C114678
:101510004FF00002A0F11F00A0EB0C00704711F08B
:10152000004F08BF704731F000413FF4D5AF0B0CBE
:1015300006BF09044FF0100C4FF0000C0B0E04BF57
:1015400009020CF1080C0B0F04BF09010CF1040C8B
:101550008B0F04BF89000CF1020CCB0F04BF4900B4
:101560000CF1010CCCF12003A0EB0C0022FA03F3E8
:1015700002FA0CF241EA030100F10100704720F089
:101580007F4C80EA030023F07F47ACEB070303F5B1
:101590007C5300F0004003F1FF032DE980494FEA3E
:1015A000154B09B44FEA144325EA0B4E24EA0348CD
:1015B0000FF2042606EB132749083E785FEA320251
:1015C00003FB0667C7F5000707FB06F64FEA54372B
:1015D0004FEAD64606F1020607FB066CCCF1005C2A
:1015E0004FEA1C472CEA074C07FB06F40CFB06F5F8
:1015F00004EB15464FEA961634BF00204FF000402A
:101600004FEAD13706FB07FC4FEA1C4C0CFB0BF7EB
:10161000D21B03FB0CF761EB07010CFB0EF7B0EBE1
:10162000074072EB17420CFB08F734BFA2EB0742EE
:10163000B2EB074261EB17414FEA0C444FEA9107C6
:1016400006FB07FC4FEA1C4C0CFB0BF7B0EBC7404A
:1016500072EB573203FB0CF734BFA2EBC742B2EB7D
:10166000C74261EB57310CFB0EF7B0EBC70072EBD2
:1016700057720CFB08F734BFA2EBC702B2EBC702EC
:1016800061EB5771039F4FEA816141EA921104EBCC
:10169000CC044FEAD1374FEA826206FB07FC42EAEC
:1016A00090124FEA80604FEA1C4C0CFB0BF7D21BE8
:1016B00003FB0CF761EB07010CFB0EF7B0EB0740E7
:1016C00072EB17420CFB08F734BFA2EB0742B2EBF8
:1016D000074261EB17414FEA8C554FEA910704EB43
:1016E0009C2406FB07FC4FEA1C4C0CFB0BF7B0EBF1
:1016F000C74072EB573203FB0CF734BFA2EBC74273
:10170000B2EBC74261EB57310CFB0EF7B0EBC700F1
:1017100072EB57720CFB08F734BFA2EBC702B2EBB7
:10172000C70261EB577115EB4C254FEA816141EA25
:1017300092114FEA82624FEAD13742EA901206FBD9
:1017400007FC44F100044FEA80604FEA1C4C0CFB9C
:101750000BF7D21B03FB0CF761EB07010CFB0EF739
:10176000B0EB074072EB17420CFB08F734BFA2EB5B
:101770000742B2EB074261EB174115EB1C154FEA2C
:10178000813141EA92414FEA823242EA90424FEA85
:1017900080304FEA0C7644F1000448EA03434EEAF5
:1017A0000B484FF0000EB2EB080C71EB030724BF9F
:1017B000624639464EEB0E0E4FF0000B00185241B8
:1017C00049414BEB0B0BB2EB080C71EB03077BF1C0
:1017D000000B24BF624639464EEB0E0E4FF0000B55
:1017E0000018524149414BEB0B0BB2EB080C71EB6B
:1017F00003077BF1000B24BF624639464EEB0E0E09
:1018000051EA020718BF46F0010616EB0E7655F1B5
:10181000000254F1000103D5BDE88901BDE800884C
:10182000BDE88901BDE80048B619524141EB01010C
:10183000A3F10103704780807F7E7D7C7B7A79787D
:10184000777676757473727171706F6E6E6D6C6C85
:101850006B6A6A6968686766666564646363626127
:101860006160605F5F5E5E5D5D5C5C5B5B5A5A59A8
:101870005958585757565655555554545353525214
:101880005251515050504F4F4F4E4E4D4D4D4C4C6C
:101890004C4B4B4B4A4A4A494949484848474747B5
:1018A00047464646454545444444444343434342F2
:1018B000424242414141002B9C4630D477002BD01C
:1018C0001CB54FEA370703B44FF010004FF010017A
:1018D000BAF1000F06D0BCF1000FDCBF40F00800E9
:1018E00040F008014FF000000FBCBDE810400BF1C4
:1018F000010BBBF1010F08BF5FEA170722BF12F10E
:10190000010211F101014FF0004143F1000300F029
:10191000004043EA00007047F9D35708D0E746EA91
:10192000064613F1400F4FEA16461FDD13F1200F54
:10193000DFBF16430A46002120335B42BED0C3F10D
:10194000200746EA064602FA07F74FEA164646EA35
:101950000706C3F1200722FA03F201FA07F721FA7A
:1019600003F14FF0000342EA0702A7E746EA020646
:1019700046EA06464FEA164646EA0106BCBF46EA74
:101980000646360C4FF000034FF000024FF0000106
:1019900094E72DE9804C9A46934670B491E838005C
:1019A00007C831EA400C48BF34EA430C03D5FFF7BF
:1019B000E6FDFFF780FFF0BCBDE8008C2DE9804C10
:1019C0009A46934670B491E8380007C810F0804FEB
:1019D00008BF13F0804F03D100F005F8FFF76BFF4D
:1019E000F0BCBDE8008C20F07F4780EA030023F0C4
:1019F0007F4C07EB0C03A3F57C5300F00040A3F1F0
:101A0000FE0392F0000F00F0B38095F0000F00F09D
:101A100077802DE901494FEA11404FEA144621EA47
:101A2000004800FB06FC24EA064708FB06F607FB15
:101A300008F800FB07F718EB06484CEB164C4FEA8A
:101A4000124B18EB07484FEA15464CEB174022EAB9
:101A50000B4E0BFB06FC25EA06470EFB06F607FBC2
:101A60000EFE0BFB07F71EEB064E4CEB164C4FF031
:101A700000061EEB074E4CEB174B18EB0B0840F122
:101A8000000018EB0E0B58EB000840F100008F1A15
:101A90004FF000013CBFC943661B14BFB5EB040CFB
:101AA00000213CBFC943F61B4FEA17444EEA8E0E95
:101AB00027EA04454FEA1C4704FB07622CEA074C5F
:101AC00005FB07F70CFB05F604FB0CFC16EB0746C1
:101AD00042EB174216EB0C4642EB1C421BEB060690
:101AE00058EB0202414146EA9E0601D5BDE8018954
:101AF000B619524141EB0101A3F10103BDE801898F
:101B00004FEA14454FEA114724EA054621EA074CFB
:101B100005FB07F406FB07F70CFB06F105FB0CFCC5
:101B200011EB074144EB17444FEA124711EB0C410C
:101B300044EB1C4422EA074C05FB07F206FB07F7BF
:101B40000CFB06F605FB0CFC16EB074642EB1742B6
:101B500016EB0C4642EB1C456A1854F1000148BFD5
:101B60007047B619524141EB0101A3F101037047DF
:101B700095F0000F37D04FEA11424FEA144721EA9F
:101B8000024624EA074C02FB07F106FB07F70CFBB1
:101B900006F402FB0CFC14EB074441EB17414FEA3F
:101BA000154714EB0C4441EB1C4125EA074C02FBA2
:101BB00007F506FB07F70CFB06F602FB0CFC16EB21
:101BC000074645EB174516EB0C4645EB1C42121930
:101BD00051F1000148BF7047B619524141EB010174
:101BE000A3F1010370474FEA14454FEA114724EA75
:101BF000054621EA074C05FB07F106FB07F70CFB3E
:101C000006F24FF0000605FB0CFC12EB074241EB1D
:101C1000174112EB0C4251EB1C4148BF7047921820
:101C200041EB0101A3F101037047FEE70E4910B536
:101C300001F1080000F036F80B4960B1D1E9040267
:101C4000C1E90202D1E90602C1E90002BDE8104083
:101C5000012000F01BB8D1E90202C1E90402D1E978
:101C60000002C1E9060210BD10000020012000F0B2
:101C70000DB8000010B50221034800F01FFC012838
:101C800000D0002010BD000000080140044B08B146
:101C9000012200E000220221184600F014BC0000DE
:101CA000000801402DE9F05F82468B460020FFF7D7
:101CB000EDFF142002F0BAFD012202212D4800F0B0
:101CC00002FC3C2002F0C0FDFFF7D4FF4FF0FF39CB
:101CD00000284CD14FF47A742146012000F071F8AD
:101CE000002844D1214600F06CF8E8BB00F046F82B
:101CF000C7B200F043F8C4B200F040F8C6B200F03A
:101D00003DF8C5B200F03AF800F0FF080120FFF7F7
:101D1000BDFF381930444119414528D1204603F010
:101D200003F8DFF85480414602F0E8FE04463846E6
:101D300002F0FAFF214602F07FFE02F051FECAE9EE
:101D40000001284602F0F0FF414602F0D7FE0446AB
:101D5000304602F0E9FF214602F06EFE02F040FE3E
:101D6000CBE90001002000E001E0BDE8F09F48461B
:101D7000F9E7000000080140000020412DE9F04192
:101D800000242546671E4FF47A763146012000F084
:101D900018F870B9282002F057FD6400FFF76AFFB9
:101DA000012801D144F001043146002000F009F877
:101DB00010B13846BDE8F0816D1C082DE5DB2046EA
:101DC000F8E770B50C46054608E0FFF753FFA84258
:101DD00001D1002070BD012002F036FD641EF4D256
:101DE0004FF0FF3070BD704700B591B00B46024612
:101DF00006A16846FEF758FA684600F057F941F226
:101E0000883109A000F0B6F911B000BD41542B4350
:101E1000495053544152543D22544350222C2225C0
:101E200073222C2564000000434F4E4E454354005E
:101E30002DE9F0410746A2B00E46002435A000F07F
:101E400035F94FF4FA75284600F036FA0A230122D4
:101E500020A9334801F07AFB0028F7D033463A46F0
:101E600030A16846FEF720FA4FF00508641CE4B282
:101E7000224631A1384802F056FAB4FBF8F108FBCB
:101E8000114078B935A1344802F04DFA00F0AEF8AF
:101E900000F0D4F80A23012220A9214801F056FBC2
:101EA0000028F7D0684600F001F900F011FB064663
:101EB00044F6206718E0294632A000F05BF970B1C3
:101EC00032A000F0F3F8284600F0F6F9224632A1DD
:101ED000214802F028FA22B00020BDE8F08129460E
:101EE00035A000F047F920B900F0F2FA801BB842A3
:101EF000E1D30A23012220A9094801F027FB002889
:101F0000F7D02FA1144802F00EFA40F6B83000F0D6
:101F1000D3F9ABE741542B43575141500000000027
:101F20007401002041542B43574A41503D222573F0
:101F3000222C2225732200005769466920636F6EA8
:101F40006E65637420617474656D70742025642EF1
:101F50002E2E0D0A000000002C0100204D756C741F
:101F600069706C65206661696C757265732C206898
:101F700061726420726573657474696E672E2E2EAB
:101F80000D0A0000474F54204950000041542B4394
:101F900049465352000000005769466920436F6E5E
:101FA0006E6563746564212028617474656D707456
:101FB000202564290D0A00004641494C000000001C
:101FC0005769466920636F6E6E6563742066616948
:101FD0006C65642C207265747279696E6720696E15
:101FE0002033732E2E2E0D0A0000000010B5114C68
:101FF000C0B000222021204600F065FA4FF4FA70AC
:1020000000F05AF901222021204600F05CFA4FF43A
:10201000FA6000F051F900240A23012269460648BB
:1020200001F094FA002802D1641C642CF4DB40B067
:1020300010BD0000000801407401002070B5FFF7DA
:10204000D5FF00244FF4FA656E1011A000F02EF8B1
:10205000294610A000F08EF838B9022C16D0304670
:1020600000F02AF9641C032CEFDB0BA000F01EF833
:102070004FF4FA7000F020F909A000F017F8294693
:1020800004A000F077F808B1002070BD012070BDF9
:10209000415400004F4B0000415445300000000007
:1020A00041542B43574D4F44453D310010B5044634
:1020B000FEF78EFA82B264232146054801F0ADFA9C
:1020C0006423BDE81040022202A1014801F0A5BA34
:1020D000740100200D0A0000F0B50746ADF50B7D38
:1020E0000E4614461046FEF773FA85B2314638465E
:1020F000FFF77AFE48B30096CDE901543B46144AF7
:102100004FF4007103A8FEF7E5F80446024611A15A
:1021100083A8FEF7C9F883A8FFF7C8FF4FF4FA6158
:1021200010A000F027F880B1A2B241F28834234613
:1021300003A90D4801F071FA21460CA000F01AF82D
:1021400018B100200DF50B7DF0BD0120FAE700006D
:102150001859000841542B43495053454E443D25DE
:10216000640000003E000000740100203230302086
:102170004F4B00002DE9F043C1B00F46814600F0FF
:10218000A7F9054600244FF480716846FEF73FFA30
:10219000A0466E4615E03119642301220C4801F077
:1021A000D5F970B9FF2C01D2641CA4B2494606F8D7
:1021B00004806846FEF7FAF918B1012041B0BDE885
:1021C000F08300F085F9401BB842E4D30020F5E726
:1021D0007401002072B6FEE710B590F821100022BD
:1021E000022905D00421816380F82020012010BD40
:1021F00001680B6823F00E030B6001680B6823F085
:1022000001030B6090F84030C46B012101FA03F325
:10221000636080F8211080F82020104610BD000077
:1022200010B590F821100024022903D00421816305
:1022300001243DE001680A6822F00E020A6001688C
:102240000A6822F001020A601A4A0168914201D12B
:10225000012121E0174A1432914201D110211BE0E3
:10226000144A2832914201D1891515E0114A3C32B5
:10227000914201D189140FE00E4A5032914202D1AD
:102280004FF4803108E00B4A6432914202D14FF49E
:10229000801101E04FF08071064A083A5160012137
:1022A00080F82110002180F82010416B01B188478F
:1022B000204610BD0800024070B5044600F008F941
:1022C0000546601C02D004480078044400F000F980
:1022D000401BA042FAD370BD000000202DE9F84F4A
:1022E000DFF8B8910024A9F1040B23460F2709F168
:1022F000040AABF1040EC9E00125A5402A40AA4218
:102300007DD1674ED1F804C0ACEB0608B44532D09D
:1023100014DCBCF1030F3AD009DCBCF1000F2AD069
:10232000BCF1010F1CD0BCF1020F31D11DE0BCF19A
:10233000110F17D0BCF1120F2AD119E0B8F5881F80
:1023400019D006DCB8F5803F15D0B8F5801F1FD135
:1023500011E0B8F5001F0ED0B8F5041F18D10AE03F
:10236000CB6815E0CB681B1D12E0CB6808330FE08B
:10237000CB680C330CE08B682BB1012B4FF00803BA
:1023800003D0456104E0042302E0056100E000237E
:10239000FF2A01D8064601E000F104064FEA840551
:1023A00001D9A5F12005D6F8008007FA05FC28EA36
:1023B0000C0803FA05F548EA0508C6F800804D68E0
:1023C000ED0062D5374DAE6946F00106AE61AD69EC
:1023D00024F0030605F001050095334D06EB050CCE
:1023E000DCF80850A607360F07FA06F825EA0805B4
:1023F000DFF8B880404503D14FF0000817E044E013
:10240000DFF8AC80404502D14FF001080FE0DFF863
:10241000A480404502D14FF0020808E0DFF8988020
:10242000404502D14FF0030801E04FF0040808FADC
:1024300006F848EA0508CCF808804D68D9F800602D
:10244000ED024D4601D5164300E096432E604D68DF
:10245000DAF80060AD02554601D5164300E0964318
:102460002E604D68DBF80060AD035D4601D5164374
:1024700000E096432E604D68DEF80060ED0375467F
:1024800001D5164300E096432E60641C0D682A4671
:10249000E5407FF431AFBDE8F88F0000080401404B
:1024A000000011100010024000000140000801402F
:1024B000000C0140001001400014014080680840F9
:1024C00000D0012070470AB1016170470904FBE7A1
:1024D00001488068704700000000002070B50400CB
:1024E00025D094F83D00002520B984F83C502046C2
:1024F00000F0E6F9242084F83D002068016821F00E
:10250000010101602068016841F400410160206818
:10251000016821F40041016000F04CFB4D4A616804
:10252000914201D84C4900E04C49884201D2012037
:1025300070BD4B492368B0FBF1F15E6826F03F06A1
:102540000E435E606368934206D94FF49673594315
:102550004FF47A73B1FBF3F12368491C1E6A26F02D
:102560003F06314319626168914210D84900401E0C
:10257000B0FBF1F2521CC2F30B02042A01D2042078
:1025800022E0B0FBF1F0401CC0F30B001CE0A2689D
:10259000F2B301EBC10303EB0116431EB3FBF6F3E9
:1025A0005B1C43F480431B0549D092B301EBC1028D
:1025B00002EB0111401EB0FBF1F0401CC0F30B0018
:1025C00040F4804040F400402168CA694CF6FF7333
:1025D0009A431043C861D4E9071001432068026898
:1025E00022F0C00211430160D4E9030101432068D5
:1025F000826848F2FF339A4311438160D4E90501B0
:1026000008432168CA6822F0FF021043C86001E055
:102610000EE016E02068016841F0010101602564C8
:10262000202084F83D00256384F83E50002070BDD2
:1026300001EB4106431EB3FBF6F35B1CB3E701203D
:10264000C2E701EB4101401EB0FBF1F0401CC0F3BA
:102650000B00B7E7A086010080841E0000093D0042
:1026600040420F002DE9F84F1F4690468A46044627
:10267000DDF82890FFF72CFF054694F83D00202850
:102680007FD11923012240492046009501F0FCF832
:10269000002876D194F83C00012872D0012084F8FB
:1026A0003C0020680168C90703D1016841F00101BD
:1026B00001602068016821F400610160212084F834
:1026C0003D00102084F83E0000262664C4F82480D3
:1026D0006785608D20852D48E0622B464A4651462D
:1026E000204601F003F890B92068416980690090A4
:1026F00036E02A464946204601F06CF950B1206C7C
:10270000042804D12068016841F4007101600120AF
:10271000BDE8F88F606A216800780861606A401C33
:102720006062618D491E6185218D491E89B22185B6
:1027300022685369DB435B070BD451B10078106109
:10274000606A401C6062608D401E6085208D401E66
:1027500020852A464946204601F06AF80028CED155
:10276000208D0028C5D154F83D0B016841F400715B
:102770000160202004F81E09E67766770020C7E78D
:10278000FFE70220C4E70000020010000000FFFF86
:102790002DE9FF4F83B09A46DDE911979346044631
:1027A000DDF84080FFF794FE054694F83D002028B0
:1027B0007FD11923012240492046009501F064F899
:1027C000002876D194F83C00012872D0012084F8CA
:1027D0003C0020680168C90703D1016841F001018C
:1027E00001602068016821F400610160212084F803
:1027F0003D00402084F83E0000262664C4F8248072
:10280000A4F82A90608D20852C48E062CDE90075FF
:1028100053465A462046049900F0B6FF70B930E09E
:102820002A463946204601F0D5F858B1206C0428D4
:1028300004D12068016841F400710160012007B0F3
:10284000BDE8F08F606A216800780861606A401C0A
:102850006062218D491E89B22185628D521E62857A
:1028600022685369DB435B070BD469B100781061C0
:10287000606A401C6062208D401E2085608D401E75
:102880006085208D0028CBD12A463946204600F0AD
:10289000CFFF0028CAD154F83D0B016841F4007104
:1028A0000160202004F81E09E67766770020C6E75D
:1028B000FFE70220C3E70000020010000000FFFF56
:1028C00030B585B0002100910191029103911E4D18
:1028D00003681E4C122103221D48AB4216D1A36986
:1028E00043F00803A361A369039203F00803049370
:1028F000C023CDE900316946FFF7F0FCE06940F400
:102900000010E061E06900F4001019E0114DAB42E5
:1029100017D1A36943F00803A361A369039203F0ED
:10292000080304934FF44063CDE900316946FFF793
:10293000D5FCE06940F48000E061E06900F48000CB
:10294000049005B030BD000000540040001002406B
:10295000000C014000580040024881680278114490
:102960008160704700000020074810B5016841F001
:1029700010010160032000F075F80F2000F006F848
:1029800000F024F8002010BD0020024070B50D4D6D
:1029900004464FF47A712878B1FBF0F00A490968CF
:1029A000B1FBF0F000F0DCFA48B9102C07D200229D
:1029B0002146501E00F036F800206C6070BD0120EA
:1029C00070BD0000000000200C0000200C4808B57D
:1029D000816941F001018161816901F0010100918A
:1029E000C16941F08051C161C06900F08050009020
:1029F0000448416821F0E06141F00071416008BD88
:102A00000010024000000140002809DB00F01F0216
:102A1000012191404009800000F1E020C0F8001140
:102A200070470000F0B40E4B1B680C46C3F3022342
:102A3000C3F10705042D00D90425191D072901D26A
:102A4000002300E0DB1E012606FA05F1491E2140A5
:102A500099409E40761E16403143F0BC01F090BC78
:102A60000CED00E0064900F0070208684FF6FF038E
:102A7000184040EA0220034A1043086070470000F3
:102A80000CED00E00000FA052DE9F0470F460500C7
:102A900061D0434E306800F00700B84209D2306878
:102AA00020F0070038433060306800F00700B8427B
:102AB00051D128683B4C810712D5400703D5606887
:102AC00040F4E06060602878000703D5606840F457
:102AD000605060606068A96820F0F00008436060A2
:102AE0002878C00728D06868012810D021680228FB
:102AF00010D0890700292EDA616821F00301014313
:102B00006160FFF7E5FC804641F288390DE02168FD
:102B10008903EFE78901EDE7FFF7DAFCA0EB080195
:102B2000494502D90320BDE8F0876068696800F074
:102B30000C00B0EB810FEFD1306800F00700B84215
:102B40000BD9306820F0070038433060306800F05F
:102B50000700B84201D00120E5E72878400705D5F5
:102B60006068E96820F4E060084360602878000746
:102B700006D56068296920F4605040EAC1006060B1
:102B800000F038F86168084AC1F30311515CC8408D
:102B90000649086006480068FFF7F8FE0020C2E713
:102BA0000020024000100240005000080C000020ED
:102BB000040000200448054900684968044AC1F33C
:102BC0000221515CC84070470C00002000100240F8
:102BD000105000080448054900684968044AC1F3D8
:102BE000C221515CC84070470C0000200010024018
:102BF000105000080E4A51680E4801F00C03042BD7
:102C000011D0082B0FD10C48C1F38343C903C05C1A
:102C10000AD55168084AC1F34041921E515C054AE9
:102C20005043B0FBF1F0704704494843704700003F
:102C30000010024000127A00F04F000800093D0029
:102C40002DE9F84F040070D02078C04DC00749D05E
:102C50006868C0F38100012807D06868C0F381006C
:102C6000022809D16868C00306D52868800339D5D1
:102C700060680028E7D035E06068B0F5803F0BD091
:102C800010B1B0F5A02F11D0286820F48030286052
:102C9000286820F4802002E0286840F48030286012
:102CA000606890B1FFF714FC06460AE0286840F41B
:102CB00080202860F0E700BFFFF70AFC801B642833
:102CC00073D828688003F7D50CE0FFF701FC0646AF
:102CD00005E000BFFFF7FCFB801B6428F0D82868E4
:102CE0008003F7D420789A4E80074FF001094FF007
:102CF000000839D5686810F00C0F07D06868C0F379
:102D00008100022809D16868C00306D428688007BA
:102D100014D52069012808D110E02069B0B1C6F8A7
:102D20000090FFF7D5FB074605E00AE1FFF7D0FB6F
:102D3000C01B0228C4D828688007F7D528686169B5
:102D400020F0F80040EAC10028600DE0C6F80080DD
:102D5000FFF7BEFB074604E0FFF7BAFBC01B0228E3
:102D600023D828688007F7D4207800072CD5794825
:102D7000A169D9B1C0F80090FFF7AAFB074604E0AB
:102D8000FFF7A6FBC01B02280FD8686A8007F7D59B
:102D900071484FF4FA510068B0FBF1F0009000BFA9
:102DA0000098411E0091FAD20EE080E0C0F8008049
:102DB000FFF78EFB074604E0FFF78AFBC01B0228E3
:102DC00075D8686A8007F7D42078400760D5E8692D
:102DD0000027C00008D4E86940F08050E861E86945
:102DE000012700F0805000905C480168C90513D4A9
:102DF0000168834641F480710160FFF769FB8246F8
:102E000006E000BFFFF764FBA0EB0A0064284ED881
:102E1000DBF80000C005F5D5E06801280AD008B14C
:102E2000052813D0286A20F001002862286A20F0C3
:102E3000040002E0286A40F001002862E06841F2E4
:102E4000883B98B1FFF744FB82460BE0286A40F0CC
:102E500004002862EEE700BFFFF73AFBA0EB0A018F
:102E600059455AD8286A8007F6D50CE0FFF730FBA1
:102E7000824605E0FFF72CFBA0EB0A0159454CD830
:102E8000286A8007F6D41FB1E86920F08050E86115
:102E9000E06988B36968C1F38101022944D002283E
:102EA000C6F8608004D0FFF713FB044638E034E036
:102EB000FFF70EFB074604E0FFF70AFBC01B0228E2
:102EC0002BD828688001F7D4206AB0F5803F05D15F
:102ED0006868A16820F4003008436860D4E90801FC
:102EE0000843696821F4741108436860C6F860906B
:102EF000FFF7EEFA044606E025E000BFFFF7E8FA28
:102F0000001B022809D828688001F7D51BE000BF04
:102F1000FFF7DEFA001B022802D90320BDE8F88F74
:102F200028688001F4D40EE00128F7D06868226A8E
:102F300000F48031914204D1616A00F4701088423B
:102F400001D00120EAE70020E8E70000001002407D
:102F500000004242800442420C0000200070004009
:102F600010B5401EB0F1807F01D3012010BD4FF09D
:102F7000E02460610F21601701F002FA0020A061D7
:102F800007202061002010BD70B590F83C20012A78
:102F900026D0012480F83C40022280F83D200368BE
:102FA0005A689D6822F070060A6832435A600D4BD9
:102FB00002689A4208D0B2F1804F05D00A4B9A427B
:102FC00002D00A4B9A4204D1496825F08003194384
:102FD000916080F83D40002180F83C10084670BDAB
:102FE000022070BD002C0140000400400008004099
:102FF00010B5040003D094F83D0010B107E00120A3
:1030000010BD002084F83C00204600F01FF802208C
:1030100084F83D00211D206800F0A2FF012084F803
:10302000460084F83E0084F83F0084F8400084F8AD
:10303000410084F8420084F8430084F8440084F896
:10304000450084F83D00002010BD000008B5006870
:103050000649884208D10648816941F400618161CE
:10306000806900F40060009008BD0000002C014061
:103070000010024090F83D10012901D00120704756
:10308000022180F83D1000680B49884208D0B0F159
:10309000804F05D00949884202D00949884204D1AD
:1030A000816801F00701062903D0016841F00101A0
:1030B0000160002070470000002C01400004004027
:1030C0000008004070B5044690F83C000025012837
:1030D00017D0012684F83C60022084F83D00206867
:1030E000826822F0770222F47F42826008685028CA
:1030F00038D00DDC20284FD005DC90B3102811D13A
:103100004AE0022070BD302846D040280AD13BE07A
:1031100060282FD070280DD0B0F5805F03D0B0F5B7
:10312000005F12D0012584F83D60002084F83C0047
:10313000284670BDCB68D1E90121206800F04CFF22
:103140002068816841F0770109E0CB68D1E901216D
:10315000206800F041FF2068816841F4804181606F
:10316000E1E719E0CA684968206800F047FF50218C
:10317000206806E0CA684968206800F050FF6021B6
:10318000206800F033FFCEE7CA684968206800F085
:1031900035FF40212068F4E7226801461046F0E739
:1031A00070477047F8B5016804460868CA684B69FB
:1031B00010F00F0F4FF0000559D003F0010602F494
:1031C0009077374365D0C10705D0D10503D5616C31
:1031D00041F001016164410705D5D90703D0616C55
:1031E00041F002016164810705D5D90703D0616C04
:1031F00041F004016164010707D502F02001314369
:1032000003D0616C41F008016164616C00293AD01F
:10321000800604D5900602D5204600F048FF2068BD
:103220004069616CC0F38010090700D460B3204688
:1032300000F016FF20684069400621D52068143050
:1032400050E8001F21F0400140E80012002AF5D1AB
:10325000E06BA8B16D494163E06BFEF7E1FF002828
:1032600011D0E06B416B01B0BDE8F0400847830628
:103270000FD593060DD52046BDE8F84000F017BFE6
:103280002046FFF78EFFF8BD2046FFF78AFF6564F2
:10329000F8BD266B2023012E7CD1C6067AD5D60632
:1032A00078D508684868009048694FF002064006E3
:1032B00040D5E16B086840680004000CE8D0A28D9E
:1032C0008242E5D9E085886920282DD020680C301D
:1032D00050E8001F21F4807140E80012002AF5D167
:1032E0002068143050E8001F21F0010140E800126E
:1032F000002AF5D12068143050E8001F21F0400169
:1033000040E80012002AF5D184F842302563206895
:103310000C3050E8001F21F0100140E80012002A94
:10332000F5D1E06BFEF758FF6663A08DE18D401A82
:1033300081B22AE0A08DE18D401A81B2E08D002893
:10334000A6D00029A4D022680C3252E8000F20F445
:10335000907042E80007002FF5D12068143050E843
:10336000002F22F0010240E80027002FF5D184F859
:103370004230256320680C3050E8002F22F0100204
:1033800040E80023002BF5D166632046FFF708FFD5
:10339000F8BDFFE705062BD5150629D594F84100A1
:1033A0002128F5D1A068B0F5805F01D12069B0B1C6
:1033B000206A411C2162216800784860E08C401E30
:1033C0000004000CE084E3D12068C16821F0800192
:1033D000C1602068C16841F04001C160D8E7206A3F
:1033E0000088C0F308004860206A801C2062E5E77E
:1033F0004006CDD55006CBD5CA68204622F0400203
:10340000CA6084F8413000F058F9C1E75140000823
:1034100070B5040004D094F84100002510B106E016
:10342000012070BD84F84050204600F023F824208D
:1034300084F841002068C16821F40051C160204631
:1034400000F096FE2068016921F490410161206836
:10345000416921F02A0141612068C16841F40051AD
:10346000C1606564202084F8410084F842006563EF
:10347000002070BD70B586B00024009401940294C1
:1034800003942E4E03682E49022003222D4DB34291
:1034900026D18B6943F480438B618B6903F48043AD
:1034A00004938B6943F004038B618969039201F0F3
:1034B000040104910102CDE9001069462846FEF797
:1034C0000DFF2815CDE90004694628460294FEF751
:1034D00005FF002211462520FFF7A4FA252029E048
:1034E000194EB34228D1CB6943F40033CB61CB6989
:1034F00003F4003304938B6943F004038B618969FF
:10350000039201F0040104910421CDE90010694601
:103510002846FEF7E3FE0820CDE9000401200290D2
:1035200069462846FEF7DAFE002211462620FFF7FC
:1035300079FA2620FFF768FA06B070BD003801401E
:103540000010024000080140004400402DE9F84FFF
:10355000044690F842009A4616460D46202802D0AE
:103560000220BDE8F88FB5B1AEB100206064222121
:1035700084F842102063FEF7ABFFA6858146E685FE
:10358000A0684FF480582027404501D1206920B120
:103590002E46002529E00120E3E7002625E04B46E2
:1035A000002220212046CDF800A000F058FE18B1DE
:1035B00084F842700320D4E726B1A06840451AD0B1
:1035C00038B108E020684068C0F3080025F8020B15
:1035D00008E0206978B12068406800F07F0000BFF3
:1035E00006F8010BE08D401EE085E08D0028D6D165
:1035F00084F84270B5E720684068F1E790F84230FF
:10360000202B01D00220704721B11AB1002303639F
:1036100000F00ABE0120704770472DE9F8430446C8
:1036200090F84100984616460D46202802D0022008
:10363000BDE8F88385B17EB100206064212084F864
:103640004100FEF745FFA6848146E684A068202756
:10365000B0F5805F02D003E00120E9E7206910B1F6
:103660002E4600250EE000260CE08021204600F0CA
:10367000F6FDA8B9C6B116F8010B21684860E08CC8
:10368000401EE084E08C4B464FF00002CDF80080F5
:103690000028EAD14FF04001204600F0E0FD40B1A3
:1036A00084F841700320C3E735F8020BC0F308002B
:1036B000E3E784F841700020BAE77047FEE701684D
:1036C0004A69D24352050FD46FF480624A610021E7
:1036D00040F8301F202242738173026942F00402D5
:1036E000026101730120704700207047F8B504465D
:1036F000C06A1E460D461746082807D0012805D087
:1037000010F5803F02D0206B122804D12068016898
:1037100041F480710160134600224FF001112046F0
:10372000009600F0B1F840B120680068C00502D5ED
:103730004FF4007020640320F8BD2069B0F5804F7D
:103740000ED00620216800EAD51040F0F000086194
:1037500033463A460B49204600F0DEF878B902E0DD
:1037600005F0FE0000E0E8B2216808610549334633
:103770003A46891F204600F0CFF80028DCD001200F
:10378000F8BD0000080001002DE9F8430446006878
:103790000D46DDE9089701689846164641F48071A8
:1037A00001604B4600224FF001112046009700F0C7
:1037B0006BF848B120680068C00502D54FF400706E
:1037C00020640320BDE8F883216805F0FE0008614D
:1037D0003B464A461549204600F09EF888B92068C5
:1037E0004169806900903A464946204600F0F2F867
:1037F00048B1206C042804D12068016841F40071AC
:1038000001600120DEE7F5B2B8F1010F09D02168AF
:10381000300A08613A464946204600F0DBF80028A5
:10382000E7D1206805610020CCE70000020001001C
:1038300070B516460D4604461EE02046FFF73FFFD2
:1038400008B1012070BD681C16D0FEF741FE801B38
:10385000A84200D885B920684069C04340070BD50D
:10386000002044F8300F20216173A073216941F0DA
:10387000200121612073E4E720684069C0434007CC
:10388000DBD4002070BD00002DE9F04798461746B4
:103890000D460446C1F30746DDF820902AE000BF3C
:1038A000B8F1FF3F26D0FEF713FEA0EB090141451A
:1038B00002D8B8F1000F1DD12068012E16D0806902
:1038C00025EA00000004000C12D00020B84211D1FB
:1038D000002044F8300F20216173A073216941F06A
:1038E0002001216120730120BDE8F0874069E7E7EE
:1038F0000120EBE72068012E0AD0806925EA00004C
:103900000004000C06D00020B842C9D00020EBE72C
:103910004069F3E70120F7E72DE9F047984616469E
:103920000D4604464FF000094FF0200AC1F3074747
:1039300023E020684069C043400515D42068016831
:1039400041F40071016021686FF480604861C4F83F
:10395000309084F83DA084F83E90216C41F0040141
:10396000216484F83C9021E0701C06D0FEF7B0FD85
:10397000A0EB0800B04203D816B1012F1FD021E000
:103980002068012F15D0806925EA00000004000C92
:1039900018D000BF44F8309F84F80DA084F80E9032
:1039A000216941F02001216184F80C900120BDE8DB
:1039B000F087406925EA00000004000CEAD1206885
:1039C000406901E02068806925EA00000004000CDD
:1039D000AFD1ECE770B516460D4604461EE0204612
:1039E000FFF76DFE08B1012070BD681C16D0FEF710
:1039F0006FFD801BA84200D885B920684069C0438C
:103A000000060BD5002044F8300F20216173A0730D
:103A1000216941F0200121612073E4E720684069B9
:103A2000C0430006DBD4002070BD0000F0B585B0B7
:103A300000241D480094019402940394816941F08C
:103A400020018161816901F020010491816941F0C7
:103A500004018161816901F004010491816941F0EF
:103A6000080181618069114F00F008000490012273
:103A700022213846FEF727FD0220009001AA1120DE
:103A80000125032682E8610069463846FEF726FCD8
:103A90002020CDE90005CDE9024669463846FEF70B
:103AA0001DFC05B0F0BD0000001002400008014000
:103AB0000D4810B50B4901600C49416000214FF4DD
:103AC00080428160C0E9031241618161C16101628C
:103AD000FEF704FD002803D0BDE81040FEF77ABBD6
:103AE00010BD0000005400403C000020A0860100F2
:103AF0000D4810B50B4901600C49416000214FF49D
:103B000080428160C0E9031241618161C16101624B
:103B1000FEF7E4FC002803D0BDE81040FEF75ABBD6
:103B200010BD00000058004090000020A086010059
:103B300010B586B0002418480094019402940394B0
:103B400004941449059401604721C0E901144FF61B
:103B5000FF71C0E903148021C0E90541FFF748FA6D
:103B600008B1FEF737FB4FF48050009069460A48D1
:103B7000FFF7A8FA08B1FEF72DFB049404A9064844
:103B80000594FFF701FA002801D0FEF723FB06B0E9
:103B900010BD0000002C0140E40000200C4810B5CE
:103BA0000A4901604FF4E1314160002181600C223B
:103BB000C160C0E904128161C161FFF729FC0028DE
:103BC00003D0BDE81040FEF705BB10BD0038014032
:103BD0002C0100200C4810B50A4901604FF4E13176
:103BE0004160002181600C22C160C0E90412816142
:103BF000C161FFF70DFC002803D0BDE81040FEF7BF
:103C0000E9BA10BD0044004074010020FEE7FEE761
:103C100010B5A0B0002480216846FCF7F8FC002114
:103C2000204600F025F98021684600F055F9641C13
:103C3000E4B2082CF3D320B010BD000010B502246C
:103C4000202000F035F9204600F032F91F480470BA
:103C50003F24A82000F02CF9204600F029F9002488
:103C6000D32000F025F9204600F022F9402000F092
:103C70001FF9A12000F01CF9C82000F019F900215B
:103C8000084600F0DFF87F24812000F011F920467B
:103C900000F00EF9A42000F00BF9A62000F008F9BE
:103CA000D52000F005F9802000F002F98D2000F009
:103CB000FFF8142000F0FCF80021012000F0C2F809
:103CC000BDE81040AF2000F0F3B800003000002045
:103CD0002DE9F047074601261D46884691460020FB
:103CE00005E000BF06EB86014E00401CC0B2A842B2
:103CF000F8D3104600F0C4FF0446304601F014F833
:103D00000646204600F0F8FF494601F0EDF831463E
:103D100001F01EF800F0D0FF064622464146384624
:103D200000F014F804463819C0B207A2414600F06A
:103D30004CF8641C3819C0B23246414600F006F80F
:103D40006019C0B2BDE8F0872E000000F0B589B060
:103D50000024074620466D4604AE002A08DA4FF0DC
:103D60002D038DF800304FF00104C2F1000214E081
:103D700006D14FF030008DF800004FF001041AE03A
:103D80004FF00A0C92FBFCF30CFB132392FBFCF2AA
:103D900003F13003335400F10100002AF0D108E0B0
:103DA00006EB0002A0F1010012F8012C2A5504F1E3
:103DB00001040028F4D14FF0000028552A46384667
:103DC00000F003F809B02046F0BD2DE9F041174698
:103DD0000E46044600250BE03146204600F00EF862
:103DE000641CE4B20F2C02D90024B61CF6B26D1C80
:103DF0007A5D002AF0D12846BDE8F08170B51646FC
:103E0000C206150E0C46072918D80F2816D82946C1
:103E1000204600F02DF80A48082100EB061006465F
:103E200000F05AF8641CE0B2294600F021F806F1CF
:103E30000800BDE87040082100F04EB870BD0000D9
:103E40001850000870B50C46050001D0012D0ED1A8
:103E50000CB1012C0BD1DA2000F02AF8280100EB7C
:103E60004410BDE87040801CC0B200F021B870BDA5
:103E700070B50E4D0C462978022905D1072803D8C4
:103E8000B030C0B200F014F8287802280CD17F2C92
:103E90000AD804F00F0000F00BF8102000EB14100B
:103EA000BDE8704000F004B870BD00003000002094
:103EB0001CB500218DF804108DF805004FF4FA7040
:103EC00000900448022301AA78214068FEF7CAFB4B
:103ED0001CBD0000300000200EB54FF4FA728DE8D2
:103EE000070004480123402278214068FEF750FC77
:103EF0000EBD00003000002070477047FEF72CBD5B
:103F000030B58FB028216846FCF781FB14210AA840
:103F1000FCF77DFB01210804CDE900100024029488
:103F200002250491CDE907504FF4E010099068464E
:103F3000FEF786FE08B172B6FEE70F20CDE90A054E
:103F40004FF48060CDE90C4002210AA80E94FEF7E0
:103F50009BFD002801D072B6FEE70FB030BD704760
:103F6000F0B50268194B1A4C1A4D4FF08047984231
:103F700005D0B84203D0A04201D0A84203D122F01C
:103F800070064A683243984205D0B84203D0A04236
:103F900001D0A84203D122F44074CA6822434C697C
:103FA00022F08002224302608A68C2620A6882624A
:103FB000984201D109690163012141610169C90781
:103FC00003D0016921F001010161F0BD002C014025
:103FD000000400400008004010B5846842EA032253
:103FE00024F47F440A432243826010BD826822F099
:103FF00070020A4342F007018160704710B5036AFE
:10400000046A24F001040462846924F0F00444EAA0
:10401000021423F00A020A438461026210BD10B543
:10402000036A046A24F010040462846923F0A00384
:1040300024F4704444EA023243EA011182610162CD
:1040400010BD00000148FFF715B80000E400002093
:1040500010B5406A0021C185C184FFF7A2F810BDE8
:1040600001680C3151E8002F22F4907241E80023DE
:10407000002BF5D10168143151E8002F22F0010224
:1040800041E80023002BF5D1016B012909D101681A
:104090000C3151E8002F22F0100241E80023002BE0
:1040A000F5D1202180F8421000210163704708B546
:1040B00090F84210222901D0022008BD82684FF4F6
:1040C00080539A4201D1016921B1816A9A421BD081
:1040D0004AB10AE00268816A5268C2F308020A80A3
:1040E000816A891C08E0026972B10268526802F0B4
:1040F0007F020A70816A491C8162C18D491E0904D0
:10410000090CC18503D01BE002685268F1E7016821
:10411000CA6822F02002CA600168CA6822F480726C
:10412000CA6001684A6922F001024A61202180F8D0
:10413000421000214163026B012A03D0FFF76CFAA1
:10414000002008BD016301680C3151E8002F22F006
:10415000100241E80023002BF5D101680A68D2065D
:1041600002D50A6849680091818DFFF719F8E7E7E1
:1041700070B5044600680169E26821F440511143BA
:1041800001612169A0680843616908432168CA6820
:1041900041F20C639A430243CA6020684169A269F4
:1041A00021F44071114341611E492068884202D1C7
:1041B000FEF710FD01E0FEF7FDFC00EBC00101EB96
:1041C0000012606864218000B2FBF0F3B3FBF1F3EE
:1041D0006FF018067343B2FBF0F5B2FBF0F605EB97
:1041E0008305322303EB0515B5FBF1F5B6FBF1F6BC
:1041F00005F0F00505EB0615B2FBF0F6B2FBF0F0AA
:10420000B0FBF1F06FF01802504306EB800003EBB7
:104210000010B0FBF1F0216800F00F002844886026
:1042200070BD00000038014081628285C285002196
:104230004164222180F84210016921B10168CA68F5
:1042400042F48072CA6001684A6942F001024A6120
:104250000068C16841F02001C160002070472DE96D
:10426000F843984617460D460446089E24E0701C05
:1042700022D0FEF72DF9A0EB0800B0421AD8CEB13B
:104280002068C168490717D5802D15D0402D13D05F
:104290000168C94309070FD40168002540680090F0
:1042A0002046FFF7DDFE0820606484F840500120BE
:1042B000BDE8F8830320FBE72068006835EA0000CA
:1042C00004D00020B842D2D00020F1E70120F9E765
:1042D0000148FEF767BF00002C0100200E4810B512
:1042E00000680168C943890610D440680B49C3B20D
:1042F0000B4A0888B0F5FF7F02D81354401C088091
:1043000080B2111801220448FFF778F9BDE8104087
:104310000148FEF747BF000074010020380000206C
:10432000BC010020FEE70FB44FF4807110B5C0B09F
:10433000044644AB6846439AFBF79CFF002807DD20
:10434000FF2805D882B2642369462046FFF765F945
:1043500040B010BC5DF814FB490050EAC12018BF02
:1043600004204A0D18BF40F0010040F2FF72B2EB8A
:10437000515F08BF40F00200012808BF05207047C8
:104380000907090E002804DB00F1E02080F8001482
:10439000704700F00F0000F1E02080F8141D704716
:1043A00030380A2801D201207047002070470000F1
:1043B000A4B0FEF7D9FAFFF7A3FDFFF737FBFFF72D
:1043C00077FBFFF795FBFFF7B3FBFFF703FCFFF766
:1043D000E5FBFFF737FEFDF749FCFFF72FFCFFF782
:1043E00017FC7DA18248FFF79EFF82A18048FFF75E
:1043F0009AFF4FF4FA6406E083A17D48FFF793FF2C
:104400002046FDF759FFFDF719FE0028F4D187A1DA
:104410007748FFF788FF89A17548FFF784FF8DA2D1
:1044200006210020FFF7D1FC40F6B8340BE08CA148
:104430006F48FFF778FF93A206210020FFF7C5FC25
:104440002046FDF739FF92A194A0FDF7F1FC00286A
:10445000EDD194A16648FFF766FF97A206210020E0
:10446000FFF7B3FCFEF734F80646FEF731F80546D1
:10447000DFF850824FF4FA7A4FF47A79FEF728F891
:10448000811B044641457AD32646FDF7CFFB002128
:104490008DA20846FFF799FC8D4CD4E9000100F08D
:1044A00019FA0246022300210720FFF711FC89A216
:1044B00000210C20FFF789FC87A202210020FFF7D2
:1044C00084FC874FD7E9000100F004FA024602237A
:1044D00019460720FFF7FCFB82A202210C20FFF700
:1044E00074FC81A204210020FFF76FFC82A14048E8
:1044F000FFF719FFD7E90001CDE90001D4E9002356
:1045000085A13B48FFF70FFFD7E90001CDE9020184
:10451000D4E90001CDE9000186A2802104A8FBF7BF
:10452000D9FE04AA90A13248FFF7FDFE04AA41F289
:10453000883191A0FDF7D0FDB8B193A12C48FFF7C9
:10454000F2FE9BA206210020FFF73FFC9CA0FDF796
:10455000ADFD5046FDF7B0FEFDF7BAFF05464CA194
:104560004EA0FDF765FC33E009E098A12048FFF775
:10457000DAFE99A206210020FFF727FC28E0A8EB2D
:104580000100B0FBF9F03C21B0FBF1F3B0FBF1F21C
:1045900001FB130395A16846FBF786FE6A460421DA
:1045A0000020FFF712FC601B4EF6602188420FD3FB
:1045B00093A0FDF77BFD514695A0FDF7DBFD30B1E3
:1045C00095A10B48FFF7AFFE97A0FDF76FFD2546BD
:1045D0004846FDF771FE51E753797374656D2053BA
:1045E00074617274696E672E2E2E0D0A0000000031
:1045F0002C010020496E69742045535038323636FC
:104600002E2E2E0D0A00000045535038323636202B
:10461000496E6974204661696C65642C207265740A
:104620007279696E672E2E2E0D0A000045535038A0
:10463000323636204F4B0D0A00000000436F6E6E7D
:10464000656374696E6720576946692E2E2E0D0AC0
:104650000000000057696669436F6E6E000000003D
:104660005769466920436F6E6E65637420466169C1
:104670006C65642C207265747279696E672E2E2EBB
:104680000D0A00005769666952657472790000006E
:104690004D737135323834333200000051696E6722
:1046A000636900005769466920436F6E6E656374E5
:1046B0006564210D0A00000057694669204F4B20B0
:1046C00000000000E093040054656D703A000000A3
:1046D000100000204300000048756D693A0000009A
:1046E000180000202500000020202020202020206D
:1046F00020202020000000000D0A3D3D3D20436F9A
:104700006C6C65637420262055706C6F6164203D6D
:104710003D3D0D0A0000000054656D703A20252EC5
:1047200032662C2048756D693A20252E32660D0AB6
:10473000000000007B226465766963655F6964221E
:104740003A312C2274656D706572617475726522E0
:104750003A252E32662C2268756D69646974792257
:104760003A252E32667D000053656E64696E673AA5
:104770002025730D0A00000031302E3131352E39DD
:10478000332E32333800000053656E642046616971
:104790006C65642C207265636F6E6E656374205463
:1047A0004350206F6E6C792E2E2E0D0A00000000F3
:1047B000544350205265636F6E6E65637400000051
:1047C00041542B434950434C4F53450053656E644D
:1047D000204F4B0D0A00000057694669204F4B20BF
:1047E0002053656E64204F4B000000004E657874C6
:1047F0003A2530326C753A2530326C750000000075
:1048000041542B4349505354415455530000000028
:1048100053544154555300004B656570616C697683
:10482000652E2E2E0D0A00004154000070B505467D
:1048300000244FF47A7603E0304600F005F8641C5B
:10484000AC42F9D370BD000010B5002812D0B0F50D
:10485000803F01D34FF6FF7007490A68516AD36A57
:104860005C1A536A8B4201D35B1A01E023445B1C40
:104870008342F6D310BD0000E400002010B50029EB
:104880000AD00878002807D005487844FCF7BEFD18
:10489000002801D0002010BD0248784410BD00005F
:1048A000121100000A11000010B500290AD0087882
:1048B000002807D005487844FCF7A8FD002801D05F
:1048C000002010BD0248784410BD00000211000015
:1048D000FA10000021F00042A2F16052B2F5801FF0
:1048E00001F0004328BFD2F17F6C0BD95FEA001CB6
:1048F00043EAC20242EB507018BF704728BF20F055
:1049000001007047B2F5801FBCBF184670474FEAE0
:10491000410C1CF5001F02D2084600F0E0BA70B549
:1049200000F009F800000089FFF7F6BF4FF00040E3
:10493000A0F5800070470EF1020E2EF0030E5EF817
:10494000046B364205D4012A43EB030515F5001F1D
:1049500012D8012841EB010C1CF5001F0CD80ED118
:104960004FEAD17C15F5001F0CEB4C0C0CF1020C3E
:1049700008BF4CEBD37C04E04FF0080C01E04FEA99
:10498000D37C0CEB4C0526FA05F606F00706B6F1CB
:10499000040C06D20EEB860CBDE870404CF0010C06
:1049A0006047DFE80CF0090B02024FF000414FF0C6
:1049B0000000A1F5002170BD19461046012851EBF9
:1049C000010418BFD4F5001484BF002001F0004199
:1049D00070BD0808A0F500114FEA310170470000D2
:1049E00043004FEAD30C4FEA3C0C43401FBF400743
:1049F0000CF1605113F0FE4F70471CF0006F03D1B3
:104A000000200CF0004170470CF0004343EA507066
:104A100010B540EACC0000F01CFA00BF0000009284
:104A20004FEA0001FFF7D5BF4FF000414FF0000003
:104A3000A1F500217047000090EA010F48BF81F006
:104A4000004100F16282421A3CBF801A89184FEA85
:104A5000D0524FF07F4C1CEA410FA2EBD15318BF4C
:104A60009CEA026F00F03B804FF0004C4CEA0020C3
:104A70004CEA012121FA03FC10EB0C0C1ED202F1CE
:104A8000FF325FEA1C2040EBC25038BF70471CF079
:104A90007F0F4FEA400C18BFBCF17F4F38BF704703
:104AA000C3F12003994008BF20F00100BCF17F4F03
:104AB00038BF7047A0F1C04000F011BA4FEA3C0087
:104AC000000A40EBC25028BF1CF0FF0F4FEA400C19
:104AD000E6D018BFBCF17F4F38BF7047EAE79CEAC9
:104AE000026F05D010EA5C0F08BF00F0004070476D
:104AF00010B500F0AEF900BF64FBBE3E4FF47F0C72
:104B00001CEAD0121EBF1CEAD11392EA0C0F93EAE2
:104B10000C0F00F0858090EA010F48BF42F48072CC
:104B200040F4000C41F400002CF07F4120F07F4065
:104B300000B58142A2EB03020FF2081CACEB504E11
:104B4000C0F100009EF800E04FEA4E0E00FB0EFCA4
:104B500038BF49004FEA2C1C02F5FA020CFB0EF399
:104B60004FEACE1E4FEA112C4FEAC1210EEB635ED5
:104B700042EB22420EFB0CFC4FEA1C5300FB0311DC
:104B80004FEA112C4FEA01310EFB0CFC4FEADC4CD2
:104B900000FB0C11C14228BF09184CEB03335DF830
:104BA00004EB10EB410143EBC250B2F57C0F38BF70
:104BB000704729D512F0F00F1CBF00F1C04000F083
:104BC00000407047008182838485868788898B8C2A
:104BD0008D8E8F919293959697999A9C9D9FA0A266
:104BE000A3A5A7A8AAACAEB0B2B3B5B7B9BCBEC0B6
:104BF000C2C5C7C9CCCED1D4D7D9DCDFE2E6E9EC57
:104C0000F0F3F7FAFE0000004FEA400C0CF1807C54
:104C1000BCF17E4F28BF7047B0F1C04000F05FB9D3
:104C200090EA010F0CEAD11348BF42F4807262454A
:104C300038BF634507D213F47F0F16D080EA010016
:104C400000F00040704710B500F003F9097EFC3E0B
:104C500000F005B880EA010000F00040704780EAEB
:104C6000010000F0004000F03AB912F47F0F04BFD9
:104C70000248704780EA010000F031B90000C07FAF
:104C800041000B0ED3F19E0208D950F400034FEA05
:104C9000032323FA02F048BF4042704710B500F0EA
:104CA000D8F800BF49922480002070476FF000427E
:104CB00082EA200070470000C10DD1F19E0206DBA0
:104CC0004FEA002343F0004323FA02F0704700420A
:104CD00007D54FEA4001B1F1FE4F02D24FF000007C
:104CE000704710B500F0B5F8499224800020704755
:104CF0006FEA20007047000010F0004148BF4042BA
:104D0000B0FA80F310FA03F2C3F19D030BD051EA1D
:104D1000C35101EB1220530638BF704700F1010068
:104D200008BF20F001007047B0FA80F310FA03F2D8
:104D3000C3F19D030AD0D90501EB1220530638BFF9
:104D4000704700F1010008BF20F00100704700002B
:104D50004FF47F0C1CEAD0121EBF1CEAD11392EA5A
:104D60000C0F93EA0C0F00F0478090EA010F48BF48
:104D700042F480724FF0004C4CEA00204CEA0121D2
:104D800002EB0302A0FB0113A2F50002002918BFE9
:104D900043F001035B0028BF4FEA330342EB22429A
:104DA0005FEA132C4CEBC2502EBFBCEB436FB2F545
:104DB0007C0F70474FEA036CBCF1004F08BF20F036
:104DC0000100B2F57C0F38BF70470BD582F0FF02AF
:104DD00012F5803FC8BF704700F1C040D8BF00F057
:104DE0000040704700F5000C5FEA4C0C48BF70476C
:104DF000B0F1C04000F073B890EA010F0CEAD11393
:104E000048BF42F48072624538BF634504D280EAED
:104E1000010000F00040704710B500F01AF800BF24
:104E20008900013E00F007B800F009B85FEA410CC4
:104E30005FEA1C6C08D080EA010000F050B85FEA1D
:104E4000400C5FEA1C6CF6D14FF00040A0F58000EA
:104E500070470EF1020E2EF0030E5EF8044B244252
:104E600004D44FEA4102B2F17F4F11D84FEA400318
:104E7000B3F17F4F0CD80ED14FEAD07CB2F17F4F07
:104E80000CEB4C0C0CF1020C08BF4CEBD17C04E099
:104E90004FF0080C01E04FEAD17C0CEB4C0324FAF4
:104EA00003F404F00704B4F1040C06D20EEB840CF6
:104EB000BDE810404CF0010C6047DFE80CF007083B
:104EC00002024FF00040A0F5800010BD08464200ED
:104ED00018BFD2F1807288BF00F0004010BDFF21E2
:104EE00041EAD050C005704780F0004090EA010FC1
:104EF0007FF5A9AD81F0004100F007B890EA010FFD
:104F000048BF81F000413FF59EAD421A04D882F0BF
:104F10000042A0EB020011444FEAD0524FF07F4C08
:104F20001CEA410FA2EBD15318BF9CEA026F4AD092
:104F30004FF0004C4CEA00204CEA012121FA03FC1E
:104F4000B0EB0C0C0FD412F0FE0F36D05FEA4C0021
:104F50001DD5001240EBC25038BF70471CF03F0F08
:104F600018BF70470BE0A2F101025FEA1C2040EB82
:104F7000C25038BF70471CF07F0F18BF7047C3F195
:104F80002003994014BF401E20F0010070478008A4
:104F90004FEA122308BF7047B0FA80FCA2EB0C0264
:104FA000CCF1280C60FA0CF093EA122F04BF00EB4E
:104FB000C25070474FEAC3707047130A5FEADC10B3
:104FC00008BF7047F6E79CEA026F04D010EA5C0F56
:104FD00008BF0020704710B5FFF73BFF40DFF63EEB
:104FE00081F000407047FBF794BCFBF76DBF0102F6
:104FF00002030405060708090A0B0C0D0E0F10101A
:105000000000000000000000010203040607080978
:105010000000000001020304000000000000000086
:10502000000000000000000000FE02020202020276
:10503000003F202020202020000000000000000071
:10504000000000000000000000FE02020202020256
:10505000003F20202020202000FE02020202020247
:10506000003F20202020202000FE02020202020237
:10507000003F20202020202000FE02020202020227
:10508000003F20202020202000FE02020202020217
:10509000003F20202020202000FE02020202020207
:1050A000003F202020202020000000000000000001
:1050B00000000000000000000000000000000000F0
:1050C00000000000000000000000000000000000E0
:1050D000000000000000000000FE020202020202C6
:1050E000003F20202020202000FE020202020202B7
:1050F000003F20202020202000FE020202020202A7
:10510000003F20202020202000FE02020202020296
:10511000003F20202020202000FE02020202020286
:10512000003F20202020202000FE02020202020276
:10513000003F20202020202000FE02020202020266
:10514000003F20202020202000FE02020202020256
:10515000003F20202020202000FE02020202020246
:10516000003F20202020202000FE02020202020236
:10517000003F20202020202000FE02020202020226
:10518000003F20202020202000FE02020202020216
:10519000003F20202020202000FE02020202020206
:1051A000003F20202020202000FE020202020202F6
:1051B000003F20202020202000FE020202020202E6
:1051C000003F20202020202000FE020202020202D6
:1051D000003F2020202020200000000000000000D0
:1051E00000000000000000000000000000000000BF
:1051F00000000000000000000000000000000000AF
:10520000000000000000000000000000000000009E
:10521000000000000000000000000000000000008E
:105220000000000000000000000000F80000000086
:10523000000000330000000000100C02100C0200FF
:1052400000000000000000000040C07840C078006E
:1052500000043F04043F040000708888FC0830000C
:1052600000182020FF211E00F008F08060180000C8
:1052700000310C031E211E0000F0088870000000A1
:105280001E21232C1927211000120E0000000000FF
:105290000000000000000000000000E01804020010
:1052A000000000071820400000020418E000000081
:1052B0000040201807000000404080F0804040007F
:1052C0000202010F0102020000000000E0000000E5
:1052D000000101010F0101010000000000000000B9
:1052E00000907000000000000000000000000000BE
:1052F00000010101010101000000000000000000A8
:10530000003030000000000000000000C038040041
:10531000006018070000000000E010080810E0001E
:10532000000F102020100F0000001010F8000000E7
:10533000000020203F202000007008080808F0002E
:10534000003028242221300000300808088870002E
:105350000018202121221C000000804030F80000AD
:1053600000060524243F242400F8888888080800C3
:105370000019202020110E0000E010888890000005
:10538000000F112020201F0000180808886818004E
:105390000000003E010000000070880808887000CE
:1053A000001C222121221C0000F008080810E00047
:1053B0000001122222110F00000000C0C0000000F6
:1053C00000000030300000000000008000000000FD
:1053D000000000E0000000000000804020100800F5
:1053E00000010204081020000040404040404000FE
:1053F00000020202020202000008102040800000A9
:10540000002010080402010000704808088870009D
:105410000000003037000000C030C828E810E0006D
:10542000071827282F2817000000C038E0000000C8
:10543000203C23020227382008F888888870000062
:10544000203F202020110E00C03008080808380036
:10545000071820202010080008F808080810E000AD
:10546000203F202020100F0008F88888E80810004E
:10547000203F20202320180008F88888E808100022
:10548000203F200003000000C0300808083800005A
:1054900007182020221E020008F808000008F8085B
:1054A000203F210101213F20000808F808080000E2
:1054B0000020203F2020000000000808F808080015
:1054C000C08080807F00000008F888C0281808008D
:1054D000203F20012638200008F8080000000000C6
:1054E000203F20202020300008F8F800F8F80800BD
:1054F000203F013E013F200008F830C00008F808B6
:10550000203F200007183F00E01008080810E000C6
:105510000F10202020100F0008F808080808F000DD
:10552000203F210101010000E01008080810E00000
:105530000F10282830504F0008F88888888870009D
:10554000203F2000030C3020007088080808380035
:105550000038202121221C00180808F8080818002B
:105560000000203F2000000008F808000008F808AC
:10557000001F202020201F000878880000C838085D
:10558000000007380E01000008F800F800F80800D5
:1055900000033E013E030000081868808068180878
:1055A00020302C03032C30200838C800C8380800ED
:1055B0000000203F2000000010080808C83808003C
:1055C0002038262120201800000000FE02020200E0
:1055D0000000007F40404000000438C00000000090
:1055E000000000010638C00000020202FE000000B8
:1055F000004040407F000000000004020204000060
:10560000000000000000000000000000000000009A
:105610008080808080808080000202040000000082
:1056200000000000000000000000808080000000FA
:1056300000192424123F200010F000808000000098
:10564000003F112020110E0000000080808000002B
:10565000000E112020201100000080808090F000BA
:10566000001F202020103F2000008080808000004C
:10567000001F242424241700008080E09090200044
:105680000020203F202000000000808080808000DB
:10569000006B94949493600010F000808080000070
:1056A000203F210000203F2000809898000000004B
:1056B0000020203F2020000000000080989800007B
:1056C00000C08080807F000010F00000808080009B
:1056D000203F240629302000001010F800000000B0
:1056E0000020203F2020000080808080808080007B
:1056F000203F20003F20003F80800080808000000D
:10570000203F210000203F2000008080808000009A
:10571000001F202020201F008080008080000000CB
:1057200080FF912020110E0000000080800080008A
:10573000000E11202091FF808080800080808000FA
:1057400020203F2120000100000080808080800018
:105750000033242424241900008080E0808000008D
:105760000000001F202010008080000000808000CA
:10577000001F202020103F2080808000808080003B
:1057800000030C300C0300008080008080008080CB
:10579000010E300C073806010080808000808000F8
:1057A0000020310E2E31200080808000008080801B
:1057B000008186781806010000808080808080004B
:1057C0000021302C222130000000000000FC0202E9
:1057D00000000000013E404000000000FF0000000B
:1057E00000000000FF0000000202FC0000000000BA
:1057F00040403E01000000000002010202040200DD
:105800000000000000000000000000000000000098
:10581000000000000000000004000008000000007C
:105820000000000200010000100000000000000065
:1058300000000000303132333435363738394142D8
:1058400043444546403058003031323334353637E2
:1058500038396162636465664030780030313233D4
:105860003435363738396162636465667870003084
:10587000313233343536373839414243444546585E
:105880005000000002400000000000A000000000E6
:1058900005400000000000C8000000000C400000AF
:1058A0000000409C00000000194000000020BCBE29
:1058B0000000000034400000BFC91B8E000000043F
:1058C000B5400000504BCFD06607E2CF010000008A
:1058D0006C4100003E8251AADFEEA73401000000B7
:1058E000D9420000DCB5A0E23A301F97FFFFFFFF6E
:1058F000B4450000FD25A0C8E9A3C14FFFFFFFFF8D
:10590000FF3F00000000008000000000FF3F00009B
:105910000000008000000000504F5354202F6170A1
:10592000692F75706C6F616420485454502F312E6C
:10593000310D0A486F73743A2025733A25640D0AB5
:10594000436F6E74656E742D547970653A20617082
:10595000706C69636174696F6E2F6A736F6E0D0A84
:10596000436F6E74656E742D4C656E6774683A2073
:1059700025640D0A0D0A257300000000C85A0008AE
:10598000000000203C00000028010008045B000823
:105990003C000020E4090000440100081C00000055
:1059A00043000000F8FFFFFF0C0000000E000000A5
:1059B0000F0000002E000000100100004300000056
:1059C000F8FFFFFF00404040404040404040414120
:1059D00041414140404040404040404040404040C4
:1059E000404040404005020202020202020202025E
:1059F000020202020220202020202020202020025B
:105A000002020202020290909090909010101010EA
:105A10001010101010101010101010101010101086
:105A2000020202020202888888888888080808081A
:105A300008080808080808080808080808080808E6
:105A4000020202024000000000000000000000000E
:105A50000000000000000000000000000000000046
:105A60000000000000000000000000000000000036
:105A70000000000000000000000000000000000026
:105A80000000000000000000000000000000000016
:105A90000000000000000000000000000000000006
:105AA00000000000000000000000000000000000F6
:105AB00000000000000000000000000000000000E6
:105AC00000000000000000000100000010000000C5
:105AD0000000000000127A00000000000080424038
